{
    "abi": [
        {
            "type": "constructor",
            "inputs": [
                {
                    "name": "_routerOwner",
                    "type": "address",
                    "internalType": "address"
                },
                {
                    "name": "_weth",
                    "type": "address",
                    "internalType": "address"
                }
            ],
            "stateMutability": "nonpayable"
        },
        {
            "type": "receive",
            "stateMutability": "payable"
        },
        {
            "type": "function",
            "name": "WETH",
            "inputs": [],
            "outputs": [
                {
                    "name": "",
                    "type": "address",
                    "internalType": "address"
                }
            ],
            "stateMutability": "view"
        },
        {
            "type": "function",
            "name": "addAdaptor",
            "inputs": [
                {
                    "name": "_executor",
                    "type": "address",
                    "internalType": "address"
                },
                {
                    "name": "_adapter",
                    "type": "address",
                    "internalType": "address"
                }
            ],
            "outputs": [],
            "stateMutability": "nonpayable"
        },
        {
            "type": "function",
            "name": "addExecutor",
            "inputs": [
                {
                    "name": "executor",
                    "type": "address",
                    "internalType": "address"
                }
            ],
            "outputs": [],
            "stateMutability": "nonpayable"
        },
        {
            "type": "function",
            "name": "isExecutorWhitelist",
            "inputs": [
                {
                    "name": "",
                    "type": "address",
                    "internalType": "address"
                }
            ],
            "outputs": [
                {
                    "name": "",
                    "type": "bool",
                    "internalType": "bool"
                }
            ],
            "stateMutability": "view"
        },
        {
            "type": "function",
            "name": "isReceiverWhitelist",
            "inputs": [
                {
                    "name": "",
                    "type": "address",
                    "internalType": "address"
                }
            ],
            "outputs": [
                {
                    "name": "",
                    "type": "bool",
                    "internalType": "bool"
                }
            ],
            "stateMutability": "view"
        },
        {
            "type": "function",
            "name": "maxFeeRate",
            "inputs": [],
            "outputs": [
                {
                    "name": "",
                    "type": "uint256",
                    "internalType": "uint256"
                }
            ],
            "stateMutability": "view"
        },
        {
            "type": "function",
            "name": "owner",
            "inputs": [],
            "outputs": [
                {
                    "name": "",
                    "type": "address",
                    "internalType": "address"
                }
            ],
            "stateMutability": "view"
        },
        {
            "type": "function",
            "name": "pause",
            "inputs": [],
            "outputs": [],
            "stateMutability": "nonpayable"
        },
        {
            "type": "function",
            "name": "pauseExecutor",
            "inputs": [
                {
                    "name": "_executor",
                    "type": "address",
                    "internalType": "address"
                }
            ],
            "outputs": [],
            "stateMutability": "nonpayable"
        },
        {
            "type": "function",
            "name": "paused",
            "inputs": [],
            "outputs": [
                {
                    "name": "",
                    "type": "bool",
                    "internalType": "bool"
                }
            ],
            "stateMutability": "view"
        },
        {
            "type": "function",
            "name": "removeExecutor",
            "inputs": [
                {
                    "name": "executor",
                    "type": "address",
                    "internalType": "address"
                }
            ],
            "outputs": [],
            "stateMutability": "nonpayable"
        },
        {
            "type": "function",
            "name": "renounceOwnership",
            "inputs": [],
            "outputs": [],
            "stateMutability": "nonpayable"
        },
        {
            "type": "function",
            "name": "setMaxFeeRate",
            "inputs": [
                {
                    "name": "_maxFeeRate",
                    "type": "uint256",
                    "internalType": "uint256"
                }
            ],
            "outputs": [],
            "stateMutability": "nonpayable"
        },
        {
            "type": "function",
            "name": "superWithdraw",
            "inputs": [
                {
                    "name": "token",
                    "type": "address",
                    "internalType": "address"
                },
                {
                    "name": "to",
                    "type": "address",
                    "internalType": "address"
                }
            ],
            "outputs": [],
            "stateMutability": "nonpayable"
        },
        {
            "type": "function",
            "name": "swap",
            "inputs": [
                {
                    "name": "executor",
                    "type": "address",
                    "internalType": "address"
                },
                {
                    "name": "fromToken",
                    "type": "address",
                    "internalType": "address"
                },
                {
                    "name": "fromTokenAmount",
                    "type": "uint256",
                    "internalType": "uint256"
                },
                {
                    "name": "toToken",
                    "type": "address",
                    "internalType": "address"
                },
                {
                    "name": "minAmountOut",
                    "type": "uint256",
                    "internalType": "uint256"
                },
                {
                    "name": "feeOnFromToken",
                    "type": "bool",
                    "internalType": "bool"
                },
                {
                    "name": "feeRate",
                    "type": "uint256",
                    "internalType": "uint256"
                },
                {
                    "name": "feeReceiver",
                    "type": "address",
                    "internalType": "address"
                },
                {
                    "name": "paths",
                    "type": "tuple[]",
                    "internalType": "struct Utils.MultiPath[]",
                    "components": [
                        {
                            "name": "percent",
                            "type": "uint256",
                            "internalType": "uint256"
                        },
                        {
                            "name": "paths",
                            "type": "tuple[]",
                            "internalType": "struct Utils.SinglePath[]",
                            "components": [
                                {
                                    "name": "toToken",
                                    "type": "address",
                                    "internalType": "address"
                                },
                                {
                                    "name": "adapters",
                                    "type": "tuple[]",
                                    "internalType": "struct Utils.Adapter[]",
                                    "components": [
                                        {
                                            "name": "adapter",
                                            "type": "address",
                                            "internalType": "address payable"
                                        },
                                        {
                                            "name": "percent",
                                            "type": "uint256",
                                            "internalType": "uint256"
                                        },
                                        {
                                            "name": "swaps",
                                            "type": "tuple[]",
                                            "internalType": "struct Utils.SimpleSwap[]",
                                            "components": [
                                                {
                                                    "name": "percent",
                                                    "type": "uint256",
                                                    "internalType": "uint256"
                                                },
                                                {
                                                    "name": "swapType",
                                                    "type": "uint256",
                                                    "internalType": "uint256"
                                                },
                                                {
                                                    "name": "data",
                                                    "type": "bytes",
                                                    "internalType": "bytes"
                                                }
                                            ]
                                        }
                                    ]
                                }
                            ]
                        }
                    ]
                }
            ],
            "outputs": [],
            "stateMutability": "payable"
        },
        {
            "type": "function",
            "name": "transferOwnership",
            "inputs": [
                {
                    "name": "newOwner",
                    "type": "address",
                    "internalType": "address"
                }
            ],
            "outputs": [],
            "stateMutability": "nonpayable"
        },
        {
            "type": "function",
            "name": "unpause",
            "inputs": [],
            "outputs": [],
            "stateMutability": "nonpayable"
        },
        {
            "type": "function",
            "name": "unpauseExecutor",
            "inputs": [
                {
                    "name": "_executor",
                    "type": "address",
                    "internalType": "address"
                }
            ],
            "outputs": [],
            "stateMutability": "nonpayable"
        },
        {
            "type": "function",
            "name": "updateFeeReceiver",
            "inputs": [
                {
                    "name": "feeReceiver",
                    "type": "address",
                    "internalType": "address"
                },
                {
                    "name": "add",
                    "type": "bool",
                    "internalType": "bool"
                }
            ],
            "outputs": [],
            "stateMutability": "nonpayable"
        },
        {
            "type": "event",
            "name": "ExecutorUpdate",
            "inputs": [
                {
                    "name": "executor",
                    "type": "address",
                    "indexed": false,
                    "internalType": "address"
                },
                {
                    "name": "add",
                    "type": "bool",
                    "indexed": false,
                    "internalType": "bool"
                }
            ],
            "anonymous": false
        },
        {
            "type": "event",
            "name": "OwnershipTransferred",
            "inputs": [
                {
                    "name": "previousOwner",
                    "type": "address",
                    "indexed": true,
                    "internalType": "address"
                },
                {
                    "name": "newOwner",
                    "type": "address",
                    "indexed": true,
                    "internalType": "address"
                }
            ],
            "anonymous": false
        },
        {
            "type": "event",
            "name": "Paused",
            "inputs": [
                {
                    "name": "account",
                    "type": "address",
                    "indexed": false,
                    "internalType": "address"
                }
            ],
            "anonymous": false
        },
        {
            "type": "event",
            "name": "Swap",
            "inputs": [
                {
                    "name": "sender",
                    "type": "address",
                    "indexed": false,
                    "internalType": "address"
                },
                {
                    "name": "fromToken",
                    "type": "address",
                    "indexed": false,
                    "internalType": "address"
                },
                {
                    "name": "fromTokenAmount",
                    "type": "uint256",
                    "indexed": false,
                    "internalType": "uint256"
                },
                {
                    "name": "toToken",
                    "type": "address",
                    "indexed": false,
                    "internalType": "address"
                },
                {
                    "name": "toTokenAmount",
                    "type": "uint256",
                    "indexed": false,
                    "internalType": "uint256"
                },
                {
                    "name": "fee",
                    "type": "uint256",
                    "indexed": false,
                    "internalType": "uint256"
                }
            ],
            "anonymous": false
        },
        {
            "type": "event",
            "name": "Unpaused",
            "inputs": [
                {
                    "name": "account",
                    "type": "address",
                    "indexed": false,
                    "internalType": "address"
                }
            ],
            "anonymous": false
        },
        {
            "type": "error",
            "name": "AddressEmptyCode",
            "inputs": [
                {
                    "name": "target",
                    "type": "address",
                    "internalType": "address"
                }
            ]
        },
        {
            "type": "error",
            "name": "AddressInsufficientBalance",
            "inputs": [
                {
                    "name": "account",
                    "type": "address",
                    "internalType": "address"
                }
            ]
        },
        {
            "type": "error",
            "name": "EnforcedPause",
            "inputs": []
        },
        {
            "type": "error",
            "name": "ExpectedPause",
            "inputs": []
        },
        {
            "type": "error",
            "name": "FailedInnerCall",
            "inputs": []
        },
        {
            "type": "error",
            "name": "OwnableInvalidOwner",
            "inputs": [
                {
                    "name": "owner",
                    "type": "address",
                    "internalType": "address"
                }
            ]
        },
        {
            "type": "error",
            "name": "OwnableUnauthorizedAccount",
            "inputs": [
                {
                    "name": "account",
                    "type": "address",
                    "internalType": "address"
                }
            ]
        },
        {
            "type": "error",
            "name": "SafeERC20FailedOperation",
            "inputs": [
                {
                    "name": "token",
                    "type": "address",
                    "internalType": "address"
                }
            ]
        }
    ],
    "bytecode": {
        "object": "0x608060405234801561001057600080fd5b5060405161196c38038061196c83398101604081905261002f91610107565b816001600160a01b03811661005e57604051631e4fbdf760e01b81526000600482015260240160405180910390fd5b6100678161009b565b506000805460ff60a01b19169055600280546001600160a01b0319166001600160a01b03929092169190911790555061013a565b600080546001600160a01b038381166001600160a01b0319831681178455604051919092169283917f8be0079c531659141344cd1fd0a4f28419497f9722a3daafe3b4186f6b6457e09190a35050565b80516001600160a01b038116811461010257600080fd5b919050565b6000806040838503121561011a57600080fd5b610123836100eb565b9150610131602084016100eb565b90509250929050565b611823806101496000396000f3fe6080604052600436106101185760003560e01c8063715018a6116100a0578063a77469c811610064578063a77469c8146102f2578063ad5c464814610312578063d0cd3bbc14610332578063f2fde38b14610362578063f96bd2e91461038257600080fd5b8063715018a6146102525780638456cb591461026757806385c178301461027c5780638cda96de146102a05780638da5cb5b146102c057600080fd5b806334a628a0116100e757806334a628a0146101a65780633cd3d569146101eb5780633e3828e0146101fe5780633f4ba83a1461021e5780635c975abb1461023357600080fd5b806312a52c5d146101245780631f5a0bbe14610146578063247884291461016657806324975fe31461018657600080fd5b3661011f57005b600080fd5b34801561013057600080fd5b5061014461013f366004611293565b6103a2565b005b34801561015257600080fd5b50610144610161366004611293565b610400565b34801561017257600080fd5b50610144610181366004611293565b61046a565b34801561019257600080fd5b506101446101a13660046112b0565b6104c9565b3480156101b257600080fd5b506101d66101c1366004611293565b60036020526000908152604090205460ff1681565b60405190151581526020015b60405180910390f35b6101446101f93660046112f7565b610608565b34801561020a57600080fd5b506101446102193660046112b0565b610bd5565b34801561022a57600080fd5b50610144610c3c565b34801561023f57600080fd5b50600054600160a01b900460ff166101d6565b34801561025e57600080fd5b50610144610c4e565b34801561027357600080fd5b50610144610c60565b34801561028857600080fd5b5061029260015481565b6040519081526020016101e2565b3480156102ac57600080fd5b506101446102bb3660046113f1565b610c70565b3480156102cc57600080fd5b506000546001600160a01b03165b6040516001600160a01b0390911681526020016101e2565b3480156102fe57600080fd5b5061014461030d36600461140a565b610c7d565b34801561031e57600080fd5b506002546102da906001600160a01b031681565b34801561033e57600080fd5b506101d661034d366004611293565b60046020526000908152604090205460ff1681565b34801561036e57600080fd5b5061014461037d366004611293565b610cb0565b34801561038e57600080fd5b5061014461039d366004611293565b610cee565b6103aa610d31565b806001600160a01b031663634a618a6040518163ffffffff1660e01b8152600401600060405180830381600087803b1580156103e557600080fd5b505af11580156103f9573d6000803e3d6000fd5b5050505050565b610408610d31565b6001600160a01b038116600081815260036020908152604091829020805460ff191660019081179091558251938452908301527fc6ec90903a9083298cfe165fca503cfbfa913a07421774047f83ceb9cbcde74091015b60405180910390a150565b610472610d31565b6001600160a01b0381166000818152600360209081526040808320805460ff191690558051938452908301919091527fc6ec90903a9083298cfe165fca503cfbfa913a07421774047f83ceb9cbcde740910161045f565b6104d1610d31565b6001600160a01b03821673eeeeeeeeeeeeeeeeeeeeeeeeeeeeeeeeeeeeeeee1461057b576040516370a0823160e01b81523060048201526000906001600160a01b038416906370a0823190602401602060405180830381865afa15801561053c573d6000803e3d6000fd5b505050506040513d601f19601f820116820180604052508101906105609190611438565b90506105766001600160a01b0384168383610d5e565b505050565b60405163a9059cbb60e01b81526001600160a01b038216600482015247602482018190529073eeeeeeeeeeeeeeeeeeeeeeeeeeeeeeeeeeeeeeee9063a9059cbb906044016020604051808303816000875af11580156105de573d6000803e3d6000fd5b505050506040513d601f19601f820116820180604052508101906106029190611451565b50505050565b610610610dbd565b6001600160a01b038a1660009081526003602052604090205460ff166106895760405162461bcd60e51b815260206004820152602360248201527f526f757465723a204578656375746f72206973206e6f742077686974656c69736044820152621d195960ea1b60648201526084015b60405180910390fd5b6001600160a01b03831660009081526004602052604090205460ff166107015760405162461bcd60e51b815260206004820152602760248201527f526f757465723a20466565205265636569766572206973206e6f742077686974604482015266195b1a5cdd195960ca1b6064820152608401610680565b6001548411156107535760405162461bcd60e51b815260206004820152601b60248201527f526f757465723a20466565205261746520697320746f6f2062696700000000006044820152606401610680565b6001600160a01b03891673eeeeeeeeeeeeeeeeeeeeeeeeeeeeeeeeeeeeeeee1461077e576000610780565b875b34146107ce5760405162461bcd60e51b815260206004820152601b60248201527f526f757465723a20496e636f7272656374206d73672e76616c756500000000006044820152606401610680565b600085156107e6576107e38a878b8888610de8565b98505b6107f18a8a8d610ee3565b6000886001600160a01b03811673eeeeeeeeeeeeeeeeeeeeeeeeeeeeeeeeeeeeeeee14610887576040516370a0823160e01b81523060048201526001600160a01b038b16906370a0823190602401602060405180830381865afa15801561085c573d6000803e3d6000fd5b505050506040513d601f19601f820116820180604052508101906108809190611438565b9150610904565b6002546040516370a0823160e01b81523060048201526001600160a01b03909116906370a0823190602401602060405180830381865afa1580156108cf573d6000803e3d6000fd5b505050506040513d601f19601f820116820180604052508101906108f39190611438565b6002546001600160a01b03169a5091505b8c6001600160a01b03166394b9137273eeeeeeeeeeeeeeeeeeeeeeeeeeeeeeeeeeeeeeee6001600160a01b03168e6001600160a01b031614610946578d610953565b6002546001600160a01b03165b8c88886040518563ffffffff1660e01b815260040161097594939291906114f3565b600060405180830381600087803b15801561098f57600080fd5b505af11580156109a3573d6000803e3d6000fd5b50506040516370a0823160e01b8152306004820152600092508491506001600160a01b038d16906370a0823190602401602060405180830381865afa1580156109f0573d6000803e3d6000fd5b505050506040513d601f19601f82011682018060405250810190610a149190611438565b610a1e9190611772565b905088610a3557610a328b8a838b8b610de8565b90505b89811015610a855760405162461bcd60e51b815260206004820152601f60248201527f526f757465723a20536c697070616765204c696d6974204578636565646564006044820152606401610680565b73eeeeeeeeeeeeeeeeeeeeeeeeeeeeeeeeeeeeeeed196001600160a01b03831601610b3b57600254604051632e1a7d4d60e01b8152600481018390526001600160a01b0390911690632e1a7d4d90602401600060405180830381600087803b158015610af057600080fd5b505af1158015610b04573d6000803e3d6000fd5b505060405133925083156108fc02915083906000818181858888f19350505050158015610b35573d6000803e3d6000fd5b50610b4f565b610b4f6001600160a01b038c163383610d5e565b7f51e00ff851e6d19ee3412286211af0aa9676df8d942e677195fc7445b4c08e30338e8e8e8589604051610bbd969594939291906001600160a01b0396871681529486166020860152604085019390935293166060830152608082019290925260a081019190915260c00190565b60405180910390a15050505050505050505050505050565b610bdd610d31565b60405163091198e160e41b81526001600160a01b0382811660048301528316906391198e1090602401600060405180830381600087803b158015610c2057600080fd5b505af1158015610c34573d6000803e3d6000fd5b505050505050565b610c44610d31565b610c4c610f9f565b565b610c56610d31565b610c4c6000610ff4565b610c68610d31565b610c4c611044565b610c78610d31565b600155565b610c85610d31565b6001600160a01b03919091166000908152600460205260409020805460ff1916911515919091179055565b610cb8610d31565b6001600160a01b038116610ce257604051631e4fbdf760e01b815260006004820152602401610680565b610ceb81610ff4565b50565b610cf6610d31565b806001600160a01b0316633e7f95cc6040518163ffffffff1660e01b8152600401600060405180830381600087803b1580156103e557600080fd5b6000546001600160a01b03163314610c4c5760405163118cdaa760e01b8152336004820152602401610680565b6040516001600160a01b0383811660248301526044820183905261057691859182169063a9059cbb906064015b604051602081830303815290604052915060e01b6020820180516001600160e01b038381831617835250505050611087565b600054600160a01b900460ff1615610c4c5760405163d93c066560e01b815260040160405180910390fd5b600080610df585856110ea565b90508315610ece578515610e1357610e0e878285610ee3565b610ece565b73eeeeeeeeeeeeeeeeeeeeeeeeeeeeeeeeeeeeeeed196001600160a01b03881601610eba57600260009054906101000a90046001600160a01b03166001600160a01b031663d0e30db0826040518263ffffffff1660e01b81526004016000604051808303818588803b158015610e8857600080fd5b505af1158015610e9c573d6000803e3d6000fd5b5050600254610e0e93506001600160a01b0316915085905083610d5e565b610ece6001600160a01b0388168483610d5e565b610ed88186611772565b979650505050505050565b73eeeeeeeeeeeeeeeeeeeeeeeeeeeeeeeeeeeeeeed196001600160a01b03841601610f8a57600260009054906101000a90046001600160a01b03166001600160a01b031663d0e30db0836040518263ffffffff1660e01b81526004016000604051808303818588803b158015610f5857600080fd5b505af1158015610f6c573d6000803e3d6000fd5b505060025461057693506001600160a01b0316915083905084610d5e565b6105766001600160a01b038416338385611112565b610fa761114b565b6000805460ff60a01b191690557f5db9ee0a495bf2e6ff9c91a7834c1ba4fdd244a5e8aa4e537bd38aeae4b073aa335b6040516001600160a01b03909116815260200160405180910390a1565b600080546001600160a01b038381166001600160a01b0319831681178455604051919092169283917f8be0079c531659141344cd1fd0a4f28419497f9722a3daafe3b4186f6b6457e09190a35050565b61104c610dbd565b6000805460ff60a01b1916600160a01b1790557f62e78cea01bee320cd4e420270b5ea74000d11b0c9f74754ebdbfc544b05a258610fd73390565b600061109c6001600160a01b03841683611175565b905080516000141580156110c15750808060200190518101906110bf9190611451565b155b1561057657604051635274afe760e01b81526001600160a01b0384166004820152602401610680565b6000670de0b6b3a76400006110ff8385611785565b611109919061179c565b90505b92915050565b6040516001600160a01b0384811660248301528381166044830152606482018390526106029186918216906323b872dd90608401610d8b565b600054600160a01b900460ff16610c4c57604051638dfc202b60e01b815260040160405180910390fd5b60606111098383600084600080856001600160a01b0316848660405161119b91906117be565b60006040518083038185875af1925050503d80600081146111d8576040519150601f19603f3d011682016040523d82523d6000602084013e6111dd565b606091505b50915091506111ed8683836111f9565b925050505b9392505050565b60608261120e5761120982611255565b6111f2565b815115801561122557506001600160a01b0384163b155b1561124e57604051639996b31560e01b81526001600160a01b0385166004820152602401610680565b50806111f2565b8051156112655780518082602001fd5b604051630a12f52160e11b815260040160405180910390fd5b6001600160a01b0381168114610ceb57600080fd5b6000602082840312156112a557600080fd5b81356111f28161127e565b600080604083850312156112c357600080fd5b82356112ce8161127e565b915060208301356112de8161127e565b809150509250929050565b8015158114610ceb57600080fd5b6000806000806000806000806000806101208b8d03121561131757600080fd5b8a356113228161127e565b995060208b01356113328161127e565b985060408b0135975060608b01356113498161127e565b965060808b0135955060a08b0135611360816112e9565b945060c08b0135935060e08b01356113778161127e565b92506101008b013567ffffffffffffffff81111561139457600080fd5b8b01600080601f83018f136113a7578182fd5b50813567ffffffffffffffff8111156113be578182fd5b6020830191508e60208260051b85010111156113d957600080fd5b8194508093505050509295989b9194979a5092959850565b60006020828403121561140357600080fd5b5035919050565b6000806040838503121561141d57600080fd5b82356114288161127e565b915060208301356112de816112e9565b60006020828403121561144a57600080fd5b5051919050565b60006020828403121561146357600080fd5b81516111f2816112e9565b6000808335601e1984360301811261148557600080fd5b830160208101925035905067ffffffffffffffff8111156114a557600080fd5b8060051b36038213156114b757600080fd5b9250929050565b60008235605e198336030181126114d457600080fd5b90910192915050565b60008235603e198336030181126114d457600080fd5b6001600160a01b03858116825284166020820152606060408201819052810182905260006080600584901b8301810190830185835b8681101561174e57858403607f1901835261154382896114dd565b8035855260408501611558602083018361146e565b9250604060208801528183835260608801905060608460051b89010192508160005b8581101561173357898503605f1901835261159582856114dd565b6040860181356115a48161127e565b6001600160a01b031687526115bc602083018361146e565b9250604060208901528183835260608901905060608460051b8a010192508160005b85811015611718578a8503605f190183526115f982856114be565b6060860181356116088161127e565b6001600160a01b031687526020828101359088015261162a604083018361146e565b9250606060408901528183835260808901905060808460051b8a010192508160005b858110156116fd578a8503607f1901835261166782856114be565b8035865260208082013590870152604081013536829003601e1901811261168d57600080fd5b0160208101903567ffffffffffffffff8111156116a957600080fd5b8036038213156116b857600080fd5b60606040880152806060880152808260808901376000608082890101526080601f19601f8301168801019650505060208201915060208301925060018101905061164c565b509298505050602094850194939093019250506001016115de565b5092985050506020948501949390930192505060010161157a565b50929750505060209485019493909301925050600101611528565b509198975050505050505050565b634e487b7160e01b600052601160045260246000fd5b8181038181111561110c5761110c61175c565b808202811582820484141761110c5761110c61175c565b6000826117b957634e487b7160e01b600052601260045260246000fd5b500490565b6000825160005b818110156117df57602081860181015185830152016117c5565b50600092019182525091905056fea2646970667358221220f6a4e2fa58b50eae2c01428e07c04e7847673c34a78749e92b3cec55409ec3ab64736f6c634300081a0033",
        "linkReferences": {}
    },
    "methodIdentifiers": {
        "WETH()": "ad5c4648",
        "addAdaptor(address,address)": "3e3828e0",
        "addExecutor(address)": "1f5a0bbe",
        "isExecutorWhitelist(address)": "34a628a0",
        "isReceiverWhitelist(address)": "d0cd3bbc",
        "maxFeeRate()": "85c17830",
        "owner()": "8da5cb5b",
        "pause()": "8456cb59",
        "pauseExecutor(address)": "f96bd2e9",
        "paused()": "5c975abb",
        "removeExecutor(address)": "24788429",
        "renounceOwnership()": "715018a6",
        "setMaxFeeRate(uint256)": "8cda96de",
        "superWithdraw(address,address)": "24975fe3",
        "swap(address,address,uint256,address,uint256,bool,uint256,address,(uint256,(address,(address,uint256,(uint256,uint256,bytes)[])[])[])[])": "3cd3d569",
        "transferOwnership(address)": "f2fde38b",
        "unpause()": "3f4ba83a",
        "unpauseExecutor(address)": "12a52c5d",
        "updateFeeReceiver(address,bool)": "a77469c8"
    },
    "id": 33
}